{
  "_format": "hh-sol-artifact-1",
  "contractName": "EmployeeExperience",
  "sourceName": "contracts/EmployeeExperience.sol",
  "abi": [
    {
      "inputs": [],
      "stateMutability": "nonpayable",
      "type": "constructor"
    },
    {
      "anonymous": false,
      "inputs": [
        {
          "indexed": false,
          "internalType": "bytes32",
          "name": "key",
          "type": "bytes32"
        },
        {
          "indexed": false,
          "internalType": "string",
          "name": "_name",
          "type": "string"
        },
        {
          "indexed": false,
          "internalType": "string",
          "name": "_company",
          "type": "string"
        },
        {
          "indexed": false,
          "internalType": "string",
          "name": "_startDate",
          "type": "string"
        },
        {
          "indexed": false,
          "internalType": "string",
          "name": "_endDate",
          "type": "string"
        }
      ],
      "name": "ExperienceAdded",
      "type": "event"
    },
    {
      "inputs": [
        {
          "internalType": "string",
          "name": "_name",
          "type": "string"
        },
        {
          "internalType": "string",
          "name": "_company",
          "type": "string"
        },
        {
          "internalType": "string",
          "name": "_startDate",
          "type": "string"
        },
        {
          "internalType": "string",
          "name": "_endDate",
          "type": "string"
        }
      ],
      "name": "addExperience",
      "outputs": [
        {
          "internalType": "bytes32",
          "name": "",
          "type": "bytes32"
        }
      ],
      "stateMutability": "nonpayable",
      "type": "function"
    },
    {
      "inputs": [
        {
          "internalType": "address",
          "name": "_newAdmin",
          "type": "address"
        }
      ],
      "name": "changeAdmin",
      "outputs": [],
      "stateMutability": "nonpayable",
      "type": "function"
    },
    {
      "inputs": [
        {
          "internalType": "bytes32",
          "name": "_key",
          "type": "bytes32"
        }
      ],
      "name": "getExperience",
      "outputs": [
        {
          "internalType": "string",
          "name": "",
          "type": "string"
        },
        {
          "internalType": "string",
          "name": "",
          "type": "string"
        },
        {
          "internalType": "string",
          "name": "",
          "type": "string"
        },
        {
          "internalType": "string",
          "name": "",
          "type": "string"
        }
      ],
      "stateMutability": "view",
      "type": "function"
    },
    {
      "inputs": [
        {
          "internalType": "bytes32",
          "name": "_key",
          "type": "bytes32"
        },
        {
          "internalType": "string",
          "name": "_newCompany",
          "type": "string"
        },
        {
          "internalType": "string",
          "name": "_newStartDate",
          "type": "string"
        },
        {
          "internalType": "string",
          "name": "_newEndDate",
          "type": "string"
        }
      ],
      "name": "updateExperience",
      "outputs": [],
      "stateMutability": "nonpayable",
      "type": "function"
    }
  ],
  "bytecode": "0x6080604052348015600f57600080fd5b5033600160006101000a81548173ffffffffffffffffffffffffffffffffffffffff021916908373ffffffffffffffffffffffffffffffffffffffff1602179055506113e6806100606000396000f3fe608060405234801561001057600080fd5b506004361061004c5760003560e01c80634e778ddd146100515780634e82f9471461006d5780638f2839701461009d578063ebee03bb146100b9575b600080fd5b61006b60048036038101906100669190610b5b565b6100ec565b005b61008760048036038101906100829190610c16565b61047e565b6040516100949190610cfc565b60405180910390f35b6100b760048036038101906100b29190610d75565b61061c565b005b6100d360048036038101906100ce9190610da2565b6106f0565b6040516100e39493929190610e4e565b60405180910390f35b600160009054906101000a900473ffffffffffffffffffffffffffffffffffffffff1673ffffffffffffffffffffffffffffffffffffffff163373ffffffffffffffffffffffffffffffffffffffff161461017c576040517f08c379a000000000000000000000000000000000000000000000000000000000815260040161017390610efb565b60405180910390fd5b60008060008681526020019081526020016000206040518060800160405290816000820180546101ab90610f4a565b80601f01602080910402602001604051908101604052809291908181526020018280546101d790610f4a565b80156102245780601f106101f957610100808354040283529160200191610224565b820191906000526020600020905b81548152906001019060200180831161020757829003601f168201915b5050505050815260200160018201805461023d90610f4a565b80601f016020809104026020016040519081016040528092919081815260200182805461026990610f4a565b80156102b65780601f1061028b576101008083540402835291602001916102b6565b820191906000526020600020905b81548152906001019060200180831161029957829003601f168201915b505050505081526020016002820180546102cf90610f4a565b80601f01602080910402602001604051908101604052809291908181526020018280546102fb90610f4a565b80156103485780601f1061031d57610100808354040283529160200191610348565b820191906000526020600020905b81548152906001019060200180831161032b57829003601f168201915b5050505050815260200160038201805461036190610f4a565b80601f016020809104026020016040519081016040528092919081815260200182805461038d90610f4a565b80156103da5780601f106103af576101008083540402835291602001916103da565b820191906000526020600020905b8154815290600101906020018083116103bd57829003601f168201915b50505050508152505090506040518060800160405280826000015181526020018581526020018481526020018381525060008087815260200190815260200160002060008201518160000190816104319190611131565b5060208201518160010190816104479190611131565b50604082015181600201908161045d9190611131565b5060608201518160030190816104739190611131565b509050505050505050565b6000600160009054906101000a900473ffffffffffffffffffffffffffffffffffffffff1673ffffffffffffffffffffffffffffffffffffffff163373ffffffffffffffffffffffffffffffffffffffff1614610510576040517f08c379a000000000000000000000000000000000000000000000000000000000815260040161050790610efb565b60405180910390fd5b6000858585854260405160200161052b959493929190611260565b604051602081830303815290604052805190602001209050604051806080016040528087815260200186815260200185815260200184815250600080838152602001908152602001600020600082015181600001908161058b9190611131565b5060208201518160010190816105a19190611131565b5060408201518160020190816105b79190611131565b5060608201518160030190816105cd9190611131565b509050507fba32919ee89c0480c2143f690666e12b7c4b315ce9d3f479068a76cab4992ee881878787876040516106089594939291906112af565b60405180910390a180915050949350505050565b600160009054906101000a900473ffffffffffffffffffffffffffffffffffffffff1673ffffffffffffffffffffffffffffffffffffffff163373ffffffffffffffffffffffffffffffffffffffff16146106ac576040517f08c379a00000000000000000000000000000000000000000000000000000000081526004016106a390610efb565b60405180910390fd5b80600160006101000a81548173ffffffffffffffffffffffffffffffffffffffff021916908373ffffffffffffffffffffffffffffffffffffffff16021790555050565b606080606080600080600087815260200190815260200160002060405180608001604052908160008201805461072590610f4a565b80601f016020809104026020016040519081016040528092919081815260200182805461075190610f4a565b801561079e5780601f106107735761010080835404028352916020019161079e565b820191906000526020600020905b81548152906001019060200180831161078157829003601f168201915b505050505081526020016001820180546107b790610f4a565b80601f01602080910402602001604051908101604052809291908181526020018280546107e390610f4a565b80156108305780601f1061080557610100808354040283529160200191610830565b820191906000526020600020905b81548152906001019060200180831161081357829003601f168201915b5050505050815260200160028201805461084990610f4a565b80601f016020809104026020016040519081016040528092919081815260200182805461087590610f4a565b80156108c25780601f10610897576101008083540402835291602001916108c2565b820191906000526020600020905b8154815290600101906020018083116108a557829003601f168201915b505050505081526020016003820180546108db90610f4a565b80601f016020809104026020016040519081016040528092919081815260200182805461090790610f4a565b80156109545780601f1061092957610100808354040283529160200191610954565b820191906000526020600020905b81548152906001019060200180831161093757829003601f168201915b50505050508152505090506000816000015151116109a7576040517f08c379a000000000000000000000000000000000000000000000000000000000815260040161099e90611390565b60405180910390fd5b80600001518160200151826040015183606001519450945094509450509193509193565b6000604051905090565b600080fd5b600080fd5b6000819050919050565b6109f2816109df565b81146109fd57600080fd5b50565b600081359050610a0f816109e9565b92915050565b600080fd5b600080fd5b6000601f19601f8301169050919050565b7f4e487b7100000000000000000000000000000000000000000000000000000000600052604160045260246000fd5b610a6882610a1f565b810181811067ffffffffffffffff82111715610a8757610a86610a30565b5b80604052505050565b6000610a9a6109cb565b9050610aa68282610a5f565b919050565b600067ffffffffffffffff821115610ac657610ac5610a30565b5b610acf82610a1f565b9050602081019050919050565b82818337600083830152505050565b6000610afe610af984610aab565b610a90565b905082815260208101848484011115610b1a57610b19610a1a565b5b610b25848285610adc565b509392505050565b600082601f830112610b4257610b41610a15565b5b8135610b52848260208601610aeb565b91505092915050565b60008060008060808587031215610b7557610b746109d5565b5b6000610b8387828801610a00565b945050602085013567ffffffffffffffff811115610ba457610ba36109da565b5b610bb087828801610b2d565b935050604085013567ffffffffffffffff811115610bd157610bd06109da565b5b610bdd87828801610b2d565b925050606085013567ffffffffffffffff811115610bfe57610bfd6109da565b5b610c0a87828801610b2d565b91505092959194509250565b60008060008060808587031215610c3057610c2f6109d5565b5b600085013567ffffffffffffffff811115610c4e57610c4d6109da565b5b610c5a87828801610b2d565b945050602085013567ffffffffffffffff811115610c7b57610c7a6109da565b5b610c8787828801610b2d565b935050604085013567ffffffffffffffff811115610ca857610ca76109da565b5b610cb487828801610b2d565b925050606085013567ffffffffffffffff811115610cd557610cd46109da565b5b610ce187828801610b2d565b91505092959194509250565b610cf6816109df565b82525050565b6000602082019050610d116000830184610ced565b92915050565b600073ffffffffffffffffffffffffffffffffffffffff82169050919050565b6000610d4282610d17565b9050919050565b610d5281610d37565b8114610d5d57600080fd5b50565b600081359050610d6f81610d49565b92915050565b600060208284031215610d8b57610d8a6109d5565b5b6000610d9984828501610d60565b91505092915050565b600060208284031215610db857610db76109d5565b5b6000610dc684828501610a00565b91505092915050565b600081519050919050565b600082825260208201905092915050565b60005b83811015610e09578082015181840152602081019050610dee565b60008484015250505050565b6000610e2082610dcf565b610e2a8185610dda565b9350610e3a818560208601610deb565b610e4381610a1f565b840191505092915050565b60006080820190508181036000830152610e688187610e15565b90508181036020830152610e7c8186610e15565b90508181036040830152610e908185610e15565b90508181036060830152610ea48184610e15565b905095945050505050565b7f4f6e6c792061646d696e2063616e2061646420656d706c6f7965652064617461600082015250565b6000610ee5602083610dda565b9150610ef082610eaf565b602082019050919050565b60006020820190508181036000830152610f1481610ed8565b9050919050565b7f4e487b7100000000000000000000000000000000000000000000000000000000600052602260045260246000fd5b60006002820490506001821680610f6257607f821691505b602082108103610f7557610f74610f1b565b5b50919050565b60008190508160005260206000209050919050565b60006020601f8301049050919050565b600082821b905092915050565b600060088302610fdd7fffffffffffffffffffffffffffffffffffffffffffffffffffffffffffffffff82610fa0565b610fe78683610fa0565b95508019841693508086168417925050509392505050565b6000819050919050565b6000819050919050565b600061102e61102961102484610fff565b611009565b610fff565b9050919050565b6000819050919050565b61104883611013565b61105c61105482611035565b848454610fad565b825550505050565b600090565b611071611064565b61107c81848461103f565b505050565b5b818110156110a057611095600082611069565b600181019050611082565b5050565b601f8211156110e5576110b681610f7b565b6110bf84610f90565b810160208510156110ce578190505b6110e26110da85610f90565b830182611081565b50505b505050565b600082821c905092915050565b6000611108600019846008026110ea565b1980831691505092915050565b600061112183836110f7565b9150826002028217905092915050565b61113a82610dcf565b67ffffffffffffffff81111561115357611152610a30565b5b61115d8254610f4a565b6111688282856110a4565b600060209050601f83116001811461119b5760008415611189578287015190505b6111938582611115565b8655506111fb565b601f1984166111a986610f7b565b60005b828110156111d1578489015182556001820191506020850194506020810190506111ac565b868310156111ee57848901516111ea601f8916826110f7565b8355505b6001600288020188555050505b505050505050565b600081905092915050565b600061121982610dcf565b6112238185611203565b9350611233818560208601610deb565b80840191505092915050565b6000819050919050565b61125a61125582610fff565b61123f565b82525050565b600061126c828861120e565b9150611278828761120e565b9150611284828661120e565b9150611290828561120e565b915061129c8284611249565b6020820191508190509695505050505050565b600060a0820190506112c46000830188610ced565b81810360208301526112d68187610e15565b905081810360408301526112ea8186610e15565b905081810360608301526112fe8185610e15565b905081810360808301526113128184610e15565b90509695505050505050565b7f4e6f206461746120666f756e6420666f72207468652070726f7669646564206b60008201527f6579000000000000000000000000000000000000000000000000000000000000602082015250565b600061137a602283610dda565b91506113858261131e565b604082019050919050565b600060208201905081810360008301526113a98161136d565b905091905056fea26469706673582212206868d7d57d7d87dc758ecfb7d39a754a9a2332f2cba9f47a87f80ec7fe888e4464736f6c634300081b0033",
  "linkReferences": {},
  "deployedLinkReferences": {}
}