{
  "_format": "hh-sol-artifact-1",
  "contractName": "EmployeeExperience",
  "sourceName": "contracts/EmployeeExperience.sol",
  "abi": [
    {
      "inputs": [],
      "stateMutability": "nonpayable",
      "type": "constructor"
    },
    {
      "anonymous": false,
      "inputs": [
        {
          "indexed": false,
          "internalType": "bytes32",
          "name": "key",
          "type": "bytes32"
        },
        {
          "indexed": false,
          "internalType": "string",
          "name": "_name",
          "type": "string"
        },
        {
          "indexed": false,
          "internalType": "string",
          "name": "_company",
          "type": "string"
        },
        {
          "indexed": false,
          "internalType": "uint256",
          "name": "_startDate",
          "type": "uint256"
        },
        {
          "indexed": false,
          "internalType": "uint256",
          "name": "_endDate",
          "type": "uint256"
        }
      ],
      "name": "ExperienceAdded",
      "type": "event"
    },
    {
      "inputs": [
        {
          "internalType": "string",
          "name": "_name",
          "type": "string"
        },
        {
          "internalType": "string",
          "name": "_company",
          "type": "string"
        },
        {
          "internalType": "uint256",
          "name": "_startDate",
          "type": "uint256"
        },
        {
          "internalType": "uint256",
          "name": "_endDate",
          "type": "uint256"
        }
      ],
      "name": "addExperience",
      "outputs": [
        {
          "internalType": "bytes32",
          "name": "",
          "type": "bytes32"
        }
      ],
      "stateMutability": "nonpayable",
      "type": "function"
    },
    {
      "inputs": [
        {
          "internalType": "address",
          "name": "_newAdmin",
          "type": "address"
        }
      ],
      "name": "changeAdmin",
      "outputs": [],
      "stateMutability": "nonpayable",
      "type": "function"
    },
    {
      "inputs": [
        {
          "internalType": "bytes32",
          "name": "_key",
          "type": "bytes32"
        }
      ],
      "name": "getExperience",
      "outputs": [
        {
          "internalType": "string",
          "name": "",
          "type": "string"
        },
        {
          "internalType": "string",
          "name": "",
          "type": "string"
        },
        {
          "internalType": "uint256",
          "name": "",
          "type": "uint256"
        },
        {
          "internalType": "uint256",
          "name": "",
          "type": "uint256"
        }
      ],
      "stateMutability": "view",
      "type": "function"
    },
    {
      "inputs": [
        {
          "internalType": "bytes32",
          "name": "_key",
          "type": "bytes32"
        },
        {
          "internalType": "string",
          "name": "_newCompany",
          "type": "string"
        },
        {
          "internalType": "uint256",
          "name": "_newStartDate",
          "type": "uint256"
        },
        {
          "internalType": "uint256",
          "name": "_newEndDate",
          "type": "uint256"
        }
      ],
      "name": "updateExperience",
      "outputs": [],
      "stateMutability": "nonpayable",
      "type": "function"
    }
  ],
  "bytecode": "0x6080604052348015600f57600080fd5b5033600160006101000a81548173ffffffffffffffffffffffffffffffffffffffff021916908373ffffffffffffffffffffffffffffffffffffffff16021790555061114d806100606000396000f3fe608060405234801561001057600080fd5b506004361061004c5760003560e01c806346400512146100515780638f28397014610081578063a5af54591461009d578063ebee03bb146100b9575b600080fd5b61006b6004803603810190610066919061090b565b6100ec565b60405161007891906109c3565b60405180910390f35b61009b60048036038101906100969190610a3c565b610272565b005b6100b760048036038101906100b29190610a95565b610346565b005b6100d360048036038101906100ce9190610b18565b6105b0565b6040516100e39493929190610bd3565b60405180910390f35b6000600160009054906101000a900473ffffffffffffffffffffffffffffffffffffffff1673ffffffffffffffffffffffffffffffffffffffff163373ffffffffffffffffffffffffffffffffffffffff161461017e576040517f08c379a000000000000000000000000000000000000000000000000000000000815260040161017590610c72565b60405180910390fd5b60008585858542604051602001610199959493929190610cef565b60405160208183030381529060405280519060200120905060405180608001604052808781526020018681526020018581526020018481525060008083815260200190815260200160002060008201518160000190816101f99190610f52565b50602082015181600101908161020f9190610f52565b5060408201518160020155606082015181600301559050507fc1c75227c697fea9c1bd27e66bbfa0bf584a8d5be9c72cea77fc0c9273aa4582818787878760405161025e959493929190611024565b60405180910390a180915050949350505050565b600160009054906101000a900473ffffffffffffffffffffffffffffffffffffffff1673ffffffffffffffffffffffffffffffffffffffff163373ffffffffffffffffffffffffffffffffffffffff1614610302576040517f08c379a00000000000000000000000000000000000000000000000000000000081526004016102f990610c72565b60405180910390fd5b80600160006101000a81548173ffffffffffffffffffffffffffffffffffffffff021916908373ffffffffffffffffffffffffffffffffffffffff16021790555050565b600160009054906101000a900473ffffffffffffffffffffffffffffffffffffffff1673ffffffffffffffffffffffffffffffffffffffff163373ffffffffffffffffffffffffffffffffffffffff16146103d6576040517f08c379a00000000000000000000000000000000000000000000000000000000081526004016103cd90610c72565b60405180910390fd5b600080600086815260200190815260200160002060405180608001604052908160008201805461040590610d75565b80601f016020809104026020016040519081016040528092919081815260200182805461043190610d75565b801561047e5780601f106104535761010080835404028352916020019161047e565b820191906000526020600020905b81548152906001019060200180831161046157829003601f168201915b5050505050815260200160018201805461049790610d75565b80601f01602080910402602001604051908101604052809291908181526020018280546104c390610d75565b80156105105780601f106104e557610100808354040283529160200191610510565b820191906000526020600020905b8154815290600101906020018083116104f357829003601f168201915b5050505050815260200160028201548152602001600382015481525050905060405180608001604052808260000151815260200185815260200184815260200183815250600080878152602001908152602001600020600082015181600001908161057b9190610f52565b5060208201518160010190816105919190610f52565b5060408201518160020155606082015181600301559050505050505050565b60608060008060008060008781526020019081526020016000206040518060800160405290816000820180546105e590610d75565b80601f016020809104026020016040519081016040528092919081815260200182805461061190610d75565b801561065e5780601f106106335761010080835404028352916020019161065e565b820191906000526020600020905b81548152906001019060200180831161064157829003601f168201915b5050505050815260200160018201805461067790610d75565b80601f01602080910402602001604051908101604052809291908181526020018280546106a390610d75565b80156106f05780601f106106c5576101008083540402835291602001916106f0565b820191906000526020600020905b8154815290600101906020018083116106d357829003601f168201915b50505050508152602001600282015481526020016003820154815250509050600081600001515111610757576040517f08c379a000000000000000000000000000000000000000000000000000000000815260040161074e906110f7565b60405180910390fd5b80600001518160200151826040015183606001519450945094509450509193509193565b6000604051905090565b600080fd5b600080fd5b600080fd5b600080fd5b6000601f19601f8301169050919050565b7f4e487b7100000000000000000000000000000000000000000000000000000000600052604160045260246000fd5b6107e282610799565b810181811067ffffffffffffffff82111715610801576108006107aa565b5b80604052505050565b600061081461077b565b905061082082826107d9565b919050565b600067ffffffffffffffff8211156108405761083f6107aa565b5b61084982610799565b9050602081019050919050565b82818337600083830152505050565b600061087861087384610825565b61080a565b90508281526020810184848401111561089457610893610794565b5b61089f848285610856565b509392505050565b600082601f8301126108bc576108bb61078f565b5b81356108cc848260208601610865565b91505092915050565b6000819050919050565b6108e8816108d5565b81146108f357600080fd5b50565b600081359050610905816108df565b92915050565b6000806000806080858703121561092557610924610785565b5b600085013567ffffffffffffffff8111156109435761094261078a565b5b61094f878288016108a7565b945050602085013567ffffffffffffffff8111156109705761096f61078a565b5b61097c878288016108a7565b935050604061098d878288016108f6565b925050606061099e878288016108f6565b91505092959194509250565b6000819050919050565b6109bd816109aa565b82525050565b60006020820190506109d860008301846109b4565b92915050565b600073ffffffffffffffffffffffffffffffffffffffff82169050919050565b6000610a09826109de565b9050919050565b610a19816109fe565b8114610a2457600080fd5b50565b600081359050610a3681610a10565b92915050565b600060208284031215610a5257610a51610785565b5b6000610a6084828501610a27565b91505092915050565b610a72816109aa565b8114610a7d57600080fd5b50565b600081359050610a8f81610a69565b92915050565b60008060008060808587031215610aaf57610aae610785565b5b6000610abd87828801610a80565b945050602085013567ffffffffffffffff811115610ade57610add61078a565b5b610aea878288016108a7565b9350506040610afb878288016108f6565b9250506060610b0c878288016108f6565b91505092959194509250565b600060208284031215610b2e57610b2d610785565b5b6000610b3c84828501610a80565b91505092915050565b600081519050919050565b600082825260208201905092915050565b60005b83811015610b7f578082015181840152602081019050610b64565b60008484015250505050565b6000610b9682610b45565b610ba08185610b50565b9350610bb0818560208601610b61565b610bb981610799565b840191505092915050565b610bcd816108d5565b82525050565b60006080820190508181036000830152610bed8187610b8b565b90508181036020830152610c018186610b8b565b9050610c106040830185610bc4565b610c1d6060830184610bc4565b95945050505050565b7f4f6e6c792061646d696e2063616e2061646420656d706c6f7965652064617461600082015250565b6000610c5c602083610b50565b9150610c6782610c26565b602082019050919050565b60006020820190508181036000830152610c8b81610c4f565b9050919050565b600081905092915050565b6000610ca882610b45565b610cb28185610c92565b9350610cc2818560208601610b61565b80840191505092915050565b6000819050919050565b610ce9610ce4826108d5565b610cce565b82525050565b6000610cfb8288610c9d565b9150610d078287610c9d565b9150610d138286610cd8565b602082019150610d238285610cd8565b602082019150610d338284610cd8565b6020820191508190509695505050505050565b7f4e487b7100000000000000000000000000000000000000000000000000000000600052602260045260246000fd5b60006002820490506001821680610d8d57607f821691505b602082108103610da057610d9f610d46565b5b50919050565b60008190508160005260206000209050919050565b60006020601f8301049050919050565b600082821b905092915050565b600060088302610e087fffffffffffffffffffffffffffffffffffffffffffffffffffffffffffffffff82610dcb565b610e128683610dcb565b95508019841693508086168417925050509392505050565b6000819050919050565b6000610e4f610e4a610e45846108d5565b610e2a565b6108d5565b9050919050565b6000819050919050565b610e6983610e34565b610e7d610e7582610e56565b848454610dd8565b825550505050565b600090565b610e92610e85565b610e9d818484610e60565b505050565b5b81811015610ec157610eb6600082610e8a565b600181019050610ea3565b5050565b601f821115610f0657610ed781610da6565b610ee084610dbb565b81016020851015610eef578190505b610f03610efb85610dbb565b830182610ea2565b50505b505050565b600082821c905092915050565b6000610f2960001984600802610f0b565b1980831691505092915050565b6000610f428383610f18565b9150826002028217905092915050565b610f5b82610b45565b67ffffffffffffffff811115610f7457610f736107aa565b5b610f7e8254610d75565b610f89828285610ec5565b600060209050601f831160018114610fbc5760008415610faa578287015190505b610fb48582610f36565b86555061101c565b601f198416610fca86610da6565b60005b82811015610ff257848901518255600182019150602085019450602081019050610fcd565b8683101561100f578489015161100b601f891682610f18565b8355505b6001600288020188555050505b505050505050565b600060a08201905061103960008301886109b4565b818103602083015261104b8187610b8b565b9050818103604083015261105f8186610b8b565b905061106e6060830185610bc4565b61107b6080830184610bc4565b9695505050505050565b7f4e6f206461746120666f756e6420666f72207468652070726f7669646564206b60008201527f6579000000000000000000000000000000000000000000000000000000000000602082015250565b60006110e1602283610b50565b91506110ec82611085565b604082019050919050565b60006020820190508181036000830152611110816110d4565b905091905056fea2646970667358221220eee93fd6c3831e8c6e9f89c7c19fe235c9904ddb29317486db5bcf0f42b9eca464736f6c634300081b0033",
  "linkReferences": {},
  "deployedLinkReferences": {}
}